:100000000C9405350C9436350C9436350C943635F5
:100010000C9436350C94B6890C9436350C943635E0
:100020000C942B8D0C9436350C9436350C94363557
:100030000C9436350C9436350C9436B80C94A3B722
:100040000C9436350C94D7A50C9436350C94363573
:100050000C9436350C9436350C9436350D940C1FB3
:100060000C9436350D94A3630C9436350C943635C8
:100070000C9436350C9436350C9436350C94363554
:100080000C9436350C9436350C9436350C94363544
:100090000D945F630C9436350C9436350C943635DC
:1000A0000C9436350C9436350C9436350C94363524
:1000B0000C9436350C9436350C9436350C94363514
:1000C0000C9436350C9436350C9436350C94AAF3D2
:1000D0000C9436350C9436350C9436350C943635F4
:1000E0000C943635994D9F4DA54DB04DBB4D404EAE
:1000F000C64DCF4DD84DE34DEE4DF94D094E144E42
:10010000404E1F4E2A4E354E0F991A99BB9888982B
:100110005798049C4C99769AFE9A559B729BAA9B81
:1001200080C691C6A4C6B1C6BBC6ECC66CC60DC718
:1001300021C71BC76CC624C741C755C767C79402F0
:100140002A02B00202039802480140021E02FC018A
:10015000A0027602DE02D0010003FC028C01E20163
:100160008A02A202B201CC0186025A0286025A0217
:1001700086025A023A0280027E027E023C027E021F
:100180003C027C012202B802B001D8014E01F20209
:100190006001E4026402C8019C02CE010603E6018C
:1001A0007A02D402C8029E025A01DA016A02E2020D
:1001B000F40220029201D0029A015A01AA0292028C
:1001C0000A03084AD73B3BCE016E84BCBFFDC12F5A
:1001D0003D6C74319ABD56833DDA3D00C77F11BE38
:1001E000D9E4BB4C3E916BAAAABE000000803F053B
:1001F000A84CCDB2D44EB93836A9020C50B991866C
:1002000088083CA6AAAA2ABE000000803F076342D5
:1002100036B79BD8A71A39685618AEBAAB558C1D9D
:100220003CB7CC5763BD6DEDFD753EF6177231BF1F
:10023000000000803F08000000BE922449123EAB3F
:10024000AAAA2ABECDCCCC4C3E00000080BEABAAF0
:10025000AAAA3E00000000BF000000803F0000008E
:100260000000084178D3BB4387D1133D190E3CC32E
:10027000BD4282AD2B3E68EC8276BED98FE1A93EAD
:100280004C80EFFFBE01C4FF7F3F00000000000074
:100290000D9447110D94462E0D9408070D94D372BA
:1002A0000D948A080D947B080C940F990D947C96FC
:1002B0000C941BC10D9424750D9404050C9480C6F8
:1002C0000D94BD720C94FE9A0D94F5320C94A4C654
:1002D0000D94E06C0C9429FA0D94D65F0C94ECC646
:1002E0000C9483CA0C948CFE0C941A990D942E686D
:1002F0000D94C8680D945B6C0D94276E0D94760870
:100300000C94B1C60C94354E0C9488980D94FC0452
:100310000D94666E0C9425C10D944D1F0C9463BF13
:100320000C949F4D0D9409750D9450070D94F23166
:100330000D94C3670D9411750C94144E0D9487336E
:100340000C94C6C80C946CC60C94B7FD0C941BC7D7
:100350000D94AF590C9441C70C94E8FF0D94FC2EFA
:100360000D940E730D94841F0C9491C60C944C99AB
:100370000C9498FE0C94769A0C9421C70C9411C29C
:100380000C946EBF0C94E9C80D947E2F0D94210E31
:100390000D9421730D945D690D949A1F0D945A72FA
:1003A0000D94281F0D94EE070C9455C70C94D8C0DB
:1003B0000D94DE720D94F1740D942C050C94389705
:1003C0000D9493080D945F1F0D94AE6C0D94EA7418
:1003D0000C94B9C40D941C050D94136A0C945EC85A
:1003E0000D941F690C94E34D0D9485080D9424051C
:1003F0000D9476940D94CE590D9469110C94994DE9
:100400000D9424680C94FAA30D9471080C94CABF3F
:100410000C947DC40D94E9310C94BBC60D946C68AA
:100420000D9491030C9458F60C94BB4D0D9461609F
:100430000C9490FA0C94BDFA0D943A6A0D945B11E9
:100440000D9403750D942A6E0D94F3070C948CC1D2
:100450000C94CF4D0D940D110D94071F0C94B04DBD
:100460000D94BF000C94C64D0C94094E0D94E407F6
:100470000C9422C80D9446210D94246E0D940D0702
:100480000D944D110C9408C10C94404E0C94049C96
:100490000D946C080C9416ED0D94A12E0C94F94D4E
:1004A0000C94AA9B0C94F5C00C94D5F90C9467C7D6
:1004B0000C9417FD0D9444210D9412070D940C0516
:1004C0000D94E8070C947AC10D9434730D94623442
:1004D0000D949A680D94F5740C9484C40D94FA31BB
:1004E0000C94B2FA0D943F010C94A54D0D948E110D
:1004F0000C9492C80D94ED740D94876E0D94216E3A
:100500000D9448210C941F4E0C94559B0D94422140
:100510000D94136C0D94661F0C94729B0C940DC774
:100520000C94CFED0D941B750D94FF100C948BC49F
:100530000D9441110C9480FC0D9488720D94E67416
:100540000D9477110D94A21F0D9465060D94A7329A
:100550000D9480080D9417750C949BFD0C942A4EF5
:100560000D9413110C94BB980D94A1080D948F0851
:100570000D947F6F0D9459340C9492C40C94D84D03
:100580000C9466C00D94E92D0C94EBC10C94D8C367
:100590000D94E0740D94FB630C9424C70D940E6CC1
:1005A0000D940D750C94CEC00D94DC740D94A503C0
:1005B0000C94C5C70C9446C10D949B030D949C11DB
:1005C0000D9414050D94FB740D94B2720D94EC040B
:1005D0000C9457980C94EE4D0C9485F60C949DFA5F
:1005E0000C94E7F90D94C8720D94FF740C942FEDE0
:1005F0000C94E2C00D9487030D94401F0D94F404F5
:100600000D94321F0D9425110C94ACC70D943E72BD
:100610000C948CC00D941F750D94E4040C9456F644
:100620000C94CCC20D94DA046E616E00696E6600A3
:100630004E414E494E495459494E46CDCCCC3D0AC7
:10064000D7233C17B7D13877CC2B329595E6241FAA
:10065000B14F0A000020410000C84200401C462063
:10066000BCBE4CCA1B0E5AAEC59D7400407A10F336
:100670005A00A0724E18090010A5D4E80000E876D0
:1006800048170000E40B54020000CA9A3B00000027
:10069000E1F505000080969800000040420F000040
:1006A00000A08601000000102700000000E8030001
:1006B0000000006400000000000A000000000001CB
:1006C00000000000002C76D888DC674F0823DFC1CB
:1006D000DFAE59E1B1B796E5E3E453C63AE6519986
:1006E0007696E8E6C28426EB898C9B62ED407C6FAF
:1006F000FCEFBC9C9F40F2BAA56FA5F490055A2A66
:10070000F75C936B6CF9676DC11BFCE0E40D47FE71
:10071000F520E6B500D0ED902E0300943577050066
:1007200080841E080000204E0A000000C80C3333ED
:1007300033330F986E12831141EF8D2114893BE6FC
:100740005516CFFEE6DB18D1844B381BF77C1D9085
:100750001DA4BBE424203284725E228100C9F124EE
:10076000ECA1E53D276364696E6F70737578585B23
:1007700000256420627974657320777269747465EA
:100780006E20746F20454550524F4D20617420619A
:100790006464726573732030782530347800443394
:1007A000202D20526561642F57726974652045457C
:1007B00050524F4D0A0020436F756E7420583A20F6
:1007C000005344207072696E74696E672062797498
:1007D0006520004E6F7420696E206661726D206D19
:1007E0006F64652E00416374697665204578747284
:1007F000756465723A2000496E76616C69642065A3
:1008000078747275646572005A204F6666736574F9
:1008100000556E6B6E6F776E20636F6D6D616E64E9
:100820003A2022004D32303020496E76616C696486
:1008300020657874727564657220007A5F6D6178E6
:100840003A20007A5F6D696E3A2000795F6D6178B9
:100850003A2000795F6D696E3A2000785F6D6178AB
:100860003A20006F70656E00545249474745524523
:100870004400785F6D696E3A20005265706F727443
:10088000696E6720656E6473746F70207374617431
:100890007573000053494C454E54004E4F524D4124
:1008A0004C002553204D4F44453A205065726365F6
:1008B0006E7420646F6E653A2025643B2070726907
:1008C0006E742074696D652072656D61696E696E04
:1008D0006720696E206D696E733A2025640A0045B1
:1008E0006E642066696C65206C697374004265678C
:1008F000696E2066696C65206C697374000A5049E2
:100900004E44412074656D70657261747572653A0C
:1009100020252E3166205A20736869667420286D60
:100920006D293A20252E3366000A537465703A20EB
:1009300025642F360A000A537465703A2025642F07
:10094000362028736B6970706564290A50494E44DB
:10095000412074656D70657261747572653A202509
:1009600064205A20736869667420286D6D293A30B6
:100970000A000A5A45524F3A20252E33660A007360
:10098000746172742074656D7065726174757265DE
:100990003A20252E31660A0025642020252E326655
:1009A00000255320583A20252E356620593A202517
:1009B0002E3566205A3A20252E35660A00536C657E
:1009C00065702E2E2E004E6F7420696E2066617247
:1009D0006D206D6F64652E0025640045303A2564F6
:1009E0002052504D0A50524E303A25642052504DFC
:1009F0000A00256400442D31202D20456E646C656D
:100A00007373206C6F6F700A004175746F0020451E
:100A10002F443D00416476616E6365204B3D004D7F
:100A20003232302053256900255346696C616D656B
:100A30006E742073657474696E67733A20446973C9
:100A400061626C65640A00255346696C616D656E70
:100A5000742073657474696E67733A0A2553202095
:100A6000204D3230302044252E32660A0025535264
:100A70006574726163743A20533D4C656E677468A7
:100A800020286D6D2920463A537065656420286DD5
:100A90006D2F6D29205A3A205A4C69667420286DB2
:100AA0006D290A25532020204D3230372053252E22
:100AB00032662046252E3266205A252E32660A25B9
:100AC000535265636F7665723A20533D4578747270
:100AD00061206C656E67746820286D6D2920463A28
:100AE000537065656420286D6D2F6D290A2553208C
:100AF00020204D3230382053252E32662046252EB8
:100B000032660A25534175746F2D526574726163A4
:100B1000743A20533D3020746F2064697361626CB5
:100B2000652C203120746F20696E74657270726557
:100B30007420657874727564652D6F6E6C79206DA4
:100B40006F7665732061732072657472616374736C
:100B5000206F72207265636F7665726965730A250E
:100B6000532020204D323039205325640A0025536C
:100B700050494420686561746265642073657474CB
:100B8000696E67733A0A25532020204D3330342094
:100B900050252E32662049252E32662044252E32DD
:100BA000660A0025535049442073657474696E6762
:100BB000733A0A25532020204D3330312050252E02
:100BC00032662049252E32662044252E32660A00E0
:100BD000255353746570732070657220756E697447
:100BE0003A0A255320204D39322058252E326620CE
:100BF00059252E3266205A252E32662045252E3262
:100C0000660A25535553746570207265736F6C7551
:100C100074696F6E3A200A2553204D3335302058C1
:100C2000256420592564205A2564204525640A2519
:100C3000534D6178696D756D206665656472617488
:100C40006573202D206E6F726D616C20286D6D2F85
:100C500073293A0A255320204D3230332058252E4F
:100C600032662059252E3266205A252E32662045BE
:100C7000252E32660A25534D6178696D756D2066A3
:100C80006565647261746573202D20737465616C91
:100C9000746820286D6D2F73293A0A255320204D42
:100CA0003230332058252E32662059252E326620C8
:100CB0005A252E32662045252E32660A25534D616F
:100CC00078696D756D20616363656C6572617469C7
:100CD0006F6E202D206E6F726D616C20286D6D2FF0
:100CE0007332293A0A255320204D323031205825BD
:100CF0006C752059256C75205A256C752045256C1E
:100D0000750A25534D6178696D756D206163636562
:100D10006C65726174696F6E202D20737465616CEF
:100D2000746820286D6D2F7332293A0A25532020CC
:100D30004D3230312058256C752059256C75205A5C
:100D4000256C752045256C750A2553416363656CD8
:100D500065726174696F6E3A20533D616363656CBF
:100D600065726174696F6E2C20543D726574726196
:100D7000637420616363656C65726174696F6E0A88
:100D8000255320204D3230342053252E32662054F6
:100D9000252E32660A2553416476616E63656420B0
:100DA0007661726961626C65733A20533D4D696E7C
:100DB00020666565647261746520286D6D2F7329E6
:100DC0002C20543D4D696E2074726176656C2066EE
:100DD0006565647261746520286D6D2F73292C2000
:100DE000423D6D696E696D756D207365676D656EE9
:100DF000742074696D6520286D73292C20583D6D11
:100E00006178696D756D205859206A65726B20286C
:100E10006D6D2F73292C20205A3D6D6178696D7599
:100E20006D205A206A65726B20286D6D2F73292CF6
:100E30002020453D6D6178696D756D2045206A659E
:100E4000726B20286D6D2F73290A255320204D3297
:100E500030352053252E32662054252E326620420E
:100E6000252E32662058252E32662059252E3266D0
:100E7000205A252E32662045252E32660A255348F3
:100E80006F6D65206F666673657420286D6D293AF5
:100E90000A255320204D3230362058252E32662028
:100EA00059252E3266205A252E32660A00462564C0
:100EB0002025640A004D4D55203C3D2027462564E1
:100EC000202564270A00504944204175746F7475C9
:100ED0006E652066696E697368656421205075745B
:100EE00020746865206C617374204B702C204B69F2
:100EF00020616E64204B6420636F6E7374616E7446
:100F0000732066726F6D2061626F766520696E7402
:100F10006F20436F6E66696775726174696F6E2EBC
:100F20006800504944204175746F74756E65206681
:100F300061696C6564212074696D656F757400204A
:100F4000403A00543A00423A0050494420417574F6
:100F50006F74756E65206661696C656421205465E7
:100F60006D706572617475726520746F6F20686949
:100F7000676800204B643A2000204B693A2000202B
:100F80004B703A200020436C6173736963205049B1
:100F90004420002054753A2000204B753A20002050
:100FA0006D61783A2000206D696E3A200020643A25
:100FB000200020626961733A200020453A00205ADF
:100FC0003A0020593A0020453A00205A3A00205968
:100FD0003A00583A00005A30005A3100593000594E
:100FE0003100583000583100456E642073746F70C2
:100FF000732064696167002E0044656C6574696FD5
:101000006E206661696C65642C2046696C653A20C7
:101010000046696C652064656C657465643A000A15
:10102000002F000A004E6F74205344207072696EC6
:1010300074696E67005072696E74207361766564BE
:10104000005344207072696E74207061757365641A
:10105000006673656E736F725F726573746F72652D
:101060005F7072696E745F616E645F636F6E7469E6
:101070006E75650A004F4B004241440052414D429B
:101080006F2046414E200043524153485F43414E3A
:1010900043454C0043524153485F5245434F5645E8
:1010A000520043524153485F5245434F5645520008
:1010B000222832290054004475706C69636174659C
:1010C00020542D636F64652069676E6F7265642EAE
:1010D0000A004475706C696361746520542D636FF8
:1010E00064652069676E6F7265642E0A00496E76CA
:1010F000616C6964205420636F64652E00556E6BCB
:101100006E6F776E204D20636F64653A20257320E3
:101110000A006E6F2076616C696420636F6D6D618B
:101120006E64002C20002C20002C20006E2F61000B
:101130002C20002C20002C20006E2F61002F00504E
:101140003A005761697420666F722050494E4441DD
:10115000207461726765742074656D706572617466
:101160007572653A004C414E472053454C20464F1E
:10117000524345440022283129003030303030308D
:1011800030302D303030302D303030302D30303068
:10119000302D303030303030303030303030002092
:1011A000555549443A00310020455854525544455C
:1011B000525F434F554E543A005072757361206927
:1011C00033204D4B335300204D414348494E455F3A
:1011D000545950453A00312E3000206261736564E5
:1011E000206F6E204D61726C696E204649524D57DA
:1011F0004152455F55524C3A68747470733A2F2FC0
:101200006769746875622E636F6D2F707275736194
:1012100033642F50727573612D4669726D776172F8
:10122000652050524F544F434F4C5F5645525349DF
:101230004F4E3A004649524D574152455F4E414D3F
:10124000453A50727573612D4669726D77617265AA
:1012500020004D31313320530020423A0020453ADE
:1012600000543A0020413A0020503A002042403ACF
:101270000020403A00202F003A00205400202F0088
:1012800020423A00202F006F6B20543A002569203D
:101290006D696E2C2025692073656300496E766147
:1012A0006C6964204D20636F64653A202573200AC1
:1012B00000556E6B6E6F776E204720636F64653AE2
:1012C000202573200A004D65736820626564206CD8
:1012D0006576656C696E67206E6F742061637469F2
:1012E00076652E000A002020000A4D656173757234
:1012F000656420706F696E74733A000A5A207365D2
:1013000061726368206865696768743A20002C0020
:101310004E756D20582C593A2000206D6963726F0C
:101320006E730045786365737369766520626564E2
:10133000206C6576656C696E6720636F7272656399
:1013400074696F6E3A2000426564206C6576656C46
:10135000696E67206661696C65642E2053656E73E3
:101360006F722074726967676572656420746F6F4D
:1013700020686967682E0A00426564206C6576659E
:101380006C696E67206661696C65642E2053656EBA
:10139000736F7220646973636F6E6E6563746564E6
:1013A000206F72206361626C652062726F6B656E84
:1013B0002E0A004732382057300050494E44412011
:1013C00070726F62652063616C6962726174696FCB
:1013D0006E20737461727400473238205730004DAC
:1013E0003234005345545F43484F505F00534554D7
:1013F0005F535445505F005345545F574156455F16
:1014000000544D435F0043524153485F00472D63F2
:101410006F646520736C6963656420666F72206118
:1014200020646966666572656E74206C6576656CAD
:101430002E20436F6E74696E75653F00472D636F94
:10144000646520736C6963656420666F7220612037
:10145000646966666572656E74206C6576656C2E6F
:1014600020506C656173652072652D736C696365CE
:1014700020746865206D6F64656C20616761696EBA
:101480002E205072696E742063616E63656C6C65AA
:10149000642E00472D636F646520736C6963656417
:1014A00020666F722061206E6577657220666972B2
:1014B0006D776172652E20506C6561736520757063
:1014C0006461746520746865206669726D77617205
:1014D000652E205072696E742063616E63656C6C5A
:1014E00065642E00472D636F646520736C696365C6
:1014F0006420666F722061206E6577657220666970
:10150000726D776172652E20436F6E74696E7565BA
:101510003F00472D636F646520736C6963656420C9
:10152000666F72206120646966666572656E7420FC
:101530007072696E74657220747970652E20506CBB
:10154000656173652072652D736C696365207468CD
:1015500065206D6F64656C20616761696E2E205037
:1015600072696E742063616E63656C6C65642E00D5
:10157000472D636F646520736C6963656420666FD3
:1015800072206120646966666572656E742070728F
:10159000696E74657220747970652E20436F6E7465
:1015A000696E75653F00472D636F646520736C69D4
:1015B00063656420666F7220612064696666657287
:1015C000656E74207072696E7465722074797065CE
:1015D0002E20436F6E74696E75653F00472D636FF3
:1015E000646520736C6963656420666F7220612096
:1015F000646966666572656E74207072696E746582
:101600007220747970652E20506C6561736520724C
:10161000652D736C69636520746865206D6F646502
:101620006C20616761696E2E205072696E74206350
:10163000616E63656C6C65642E0050726573732017
:101640006B6E6F6220746F207072656865617420C4
:101650006E6F7A7A6C6520616E6420636F6E746958
:101660006E75652E00506C656173652070726573D0
:101670007320746865206B6E6F6220746F20756EC6
:101680006C6F61642066696C616D656E7400526593
:101690006D6F7665206F6C642066696C616D656E38
:1016A0007420616E642070726573732074686520A5
:1016B0006B6E6F6220746F207374617274206C6F34
:1016C0006164696E67206E65772066696C616D651F
:1016D0006E742E00616E642070726573732074687E
:1016E00065206B6E6F6200496E7365727420666967
:1016F0006C616D656E7400436F6C6F72206E6F74F9
:1017000020636F72726563740046696C616D656E0B
:1017100074206E6F74206C6F61646564004368614F
:101720006E67656420636F72726563746C793F00E5
:101730004C6F6164696E6720636F6C6F7200436801
:10174000616E676520737563636573732100506C08
:1017500065617365206F70656E2069646C657220C9
:10176000616E642072656D6F76652066696C616D6F
:10177000656E74206D616E75616C6C792E005761B9
:10178000732066696C616D656E7420756E6C6F6137
:1017900064207375636365737366756C3F00506C8A
:1017A0006561736520757067726164652E004E65B2
:1017B00077206669726D77617265207665727369EC
:1017C0006F6E20617661696C61626C653A00576189
:1017D0006974696E6720666F722050494E444120DB
:1017E00070726F626520636F6F6C696E6700437221
:1017F0006173682064657465637465642E20526546
:1018000073756D65207072696E743F004372617309
:10181000682064657465637465642E00457874722D
:10182000756465720043686F6F73652065787472C4
:10183000756465723A0043686F6F73652066696C02
:10184000616D656E743A004E6F206D6F76652E0087
:101850005761697420666F7220757365722E2E2E23
:1018600000536F6D652070726F626C656D20656EE0
:10187000636F756E74657265642C205A2D6C657685
:10188000656C696E6720656E666F72636564202E95
:101890002E2E00537461626C6520616D6269656E05
:1018A000742074656D706572617475726520323173
:1018B0002D323643206973206E656564656420614E
:1018C000207269676964207374616E642069732093
:1018D00072657175697265642E00506C656173651F
:1018E0002072756E2058595A2063616C696272616A
:1018F00074696F6E2066697273742E0073746172FE
:10190000740A006164635F696E69740A000A204F9B
:10191000726967696E616C205072757361206933FA
:101920000A202020507275736120526573656172C0
:10193000636800436F6E74696E75652077697468BB
:1019400020616E6F7468657220626F7764656E3FA8
:1019500000250020202020202000202020202020E2
:101960000045524153494E4720616C6C20646174BC
:101970006100466163746F7279205245534554008B
:10198000466163746F72792052455345540044494F
:101990005341424C45440A00454E41424C454400A7
:1019A0004653656E736F722025530A004D4B3353B7
:1019B0004D4D553253004E4F4D4B3353002E014F7A
:1019C0006374203235203230313900436F6D7069D5
:1019D0006C65643A2000286E6F6E652C2064656625
:1019E00061756C7420636F6E66696729004F63745C
:1019F00020323520323031392031373A34363A30DE
:101A0000300020332E382E312D323836390A00205E
:101A100055706C6F616420696E2070726F677265BB
:101A2000737300205A3A0020593A0020583A004374
:101A3000524153485F444554454354454458590026
:101A400043524153485F444554454354454459002B
:101A500043524153485F444554454354454458001C
:101A60004D32390045787465726E616C205350496F
:101A700020666C6173680A573235583230434C2007
:101A80006973206E6F74207265732D0A706F6E64B7
:101A9000696E672E204C616E67756167650A7377A2
:101AA0006974636820756E617661696C61626C65EA
:101AB0002E00437261736844657465637420444901
:101AC0005341424C454400437261736844657465F8
:101AD000637420454E41424C4544210057323558ED
:101AE0003230434C206E6F7420726573706F6E6479
:101AF000696E672E0A002020506C616E6E6572421E
:101B0000756666657242797465733A200020467284
:101B10006565204D656D6F72793A2000207C20410B
:101B20007574686F723A2000204C61737420557090
:101B300064617465643A200020536F667477617243
:101B40006520526573657400205761746368646F23
:101B500067205265736574002042726F776E206F44
:101B60007574205265736574002045787465726ED3
:101B7000616C20526573657400506F7765725570A3
:101B8000006572726F722077726974696E67207473
:101B90006F2066696C6500656E6473746F70732086
:101BA0006869743A2000446F6E6520736176696ECF
:101BB000672066696C652E006F6B004D4B335320B8
:101BC0006669726D776172652064657465637465BA
:101BD00064206F6E204D4B33207072696E74657295
:101BE000005072757361206933204D4B3353204F81
:101BF0004B2E00426C61636B6F7574206F6363756D
:101C0000727265642E205265636F76657220707201
:101C1000696E743F0053656C6674657374207769F0
:101C20006C6C2062652072756E20746F2063616C2D
:101C300069627261746520616363757261746520A5
:101C400073656E736F726C657373207265686F6D08
:101C5000696E672E0054686572652069732073741D
:101C6000696C6C2061206E65656420746F206D6105
:101C70006B65205A2063616C6962726174696F6E72
:101C80002E20506C6561736520666F6C6C6F7720D9
:101C9000746865206D616E75616C2C20636861707D
:101CA0007465722046697273742073746570732C46
:101CB0002073656374696F6E2043616C6962726141
:101CC00074696F6E20666C6F772E005072696E7447
:101CD000657220686173206E6F74206265656E2086
:101CE00063616C69627261746564207965742E2029
:101CF000506C6561736520666F6C6C6F77207468DB
:101D000065206D616E75616C2C206368617074650F
:101D1000722046697273742073746570732C20731B
:101D2000656374696F6E2043616C69627261746986
:101D30006F6E20666C6F772E004F6C642073657435
:101D400074696E677320666F756E642E20446566D5
:101D500061756C74205049442C2045737465707310
:101D6000206574632E2077696C6C20626520736532
:101D7000742E005761726E696E673A20626F7468E4
:101D8000207072696E746572207479706520616E5E
:101D900064206D6F74686572626F6172642074791B
:101DA0007065206368616E6765642E005761726EAE
:101DB000696E673A207072696E746572207479700A
:101DC00065206368616E6765642E005761726E6995
:101DD0006E673A206D6F74686572626F617264201D
:101DE00074797065206368616E6765642E00585968
:101DF0005A2063616C6962726174696F6E20616CF4
:101E00006C2072696768742E20536B657720776940
:101E10006C6C20626520636F727265637465642008
:101E20006175746F6D61746963616C6C792E0058B3
:101E3000595A2063616C6962726174696F6E2061C6
:101E40006C6C2072696768742E20582F5920617855
:101E500065732061726520736C696768746C7920A2
:101E6000736B657765642E20476F6F64206A6F62BD
:101E7000210058595A2063616C6962726174696FFC
:101E80006E206F6B2E20582F59206178657320616A
:101E900072652070657270656E646963756C6172DD
:101EA0002E20436F6E67726174756C6174696F6E1A
:101EB00073210058595A2063616C696272617469B8
:101EC0006F6E206661696C65642E20526967687464
:101ED0002066726F6E742063616C696272617469EE
:101EE0006F6E20706F696E74206E6F742072656102
:101EF000636861626C652E0058595A2063616C6991
:101F000062726174696F6E206661696C65642E200F
:101F100046726F6E742063616C6962726174696F7E
:101F20006E20706F696E7473206E6F7420726561BD
:101F3000636861626C652E0058595A2063616C6950
:101F400062726174696F6E206661696C65642E20CF
:101F5000506C6561736520636F6E73756C7420746B
:101F60006865206D616E75616C2E0058595A20634A
:101F7000616C6962726174696F6E20636F6D7072FB
:101F80006F6D697365642E2052696768742066728C
:101F90006F6E742063616C6962726174696F6E2028
:101FA000706F696E74206E6F742072656163686112
:101FB000626C652E0058595A2063616C69627261C7
:101FC00074696F6E20636F6D70726F6D6973656495
:101FD0002E2046726F6E742063616C696272617448
:101FE000696F6E20706F696E7473206E6F742072EB
:101FF0006561636861626C652E0058595A2063619F
:102000006C6962726174696F6E206661696C656487
:102010002E204265642063616C6962726174696F2D
:102020006E20706F696E7420776173206E6F7420FC
:10203000666F756E642E00506C6561736520706C00
:1020400061636520737465656C20736865657420D1
:102050006F6E20686561746265642E0044697374F4
:10206000616E6365206265747765656E2074697062
:10207000206F6620746865206E6F7A7A6C652061C7
:102080006E64207468652062656420737572666191
:10209000636520686173206E6F74206265656E20D1
:1020A000736574207965742E20506C6561736520AA
:1020B000666F6C6C6F7720746865206D616E7561FA
:1020C0006C2C206368617074657220466972737449
:1020D0002073746570732C2073656374696F6E2050
:1020E0004669727374206C617965722063616C69F2
:1020F00062726174696F6E2E00506C61636520615D
:10210000207368656574206F662070617065722049
:10211000756E64657220746865206E6F7A7A6C657E
:1021200020647572696E67207468652063616C69EC
:1021300062726174696F6E206F6620666972737473
:10214000203420706F696E74732E20496620746885
:1021500065206E6F7A7A6C6520636174636865735D
:10216000207468652070617065722C20706F7765CF
:1021700072206F666620746865207072696E74657F
:102180007220696D6D6564696174656C792E0050AB
:102190006C656173652072656D6F7665207374651B
:1021A000656C2073686565742066726F6D20686564
:1021B00061746265642E00497320737465656C20D8
:1021C0007368656574206F6E20686561746265640C
:1021D0003F00206F66203400536561726368696E4A
:1021E00067206265642063616C6962726174696F03
:1021F0006E20706F696E7400206F662039004D6527
:1022000061737572696E67207265666572656E636B
:102210006520686569676874206F662063616C6912
:1022200062726174696F6E20706F696E7400506CB9
:102230006561736520636C65616E20746865206EEE
:102240006F7A7A6C6520666F722063616C69627266
:102250006174696F6E2E20436C69636B20776865CB
:102260006E20646F6E652E004175746F20686F6D0F
:10227000650078797A63616C5F6D656173737572FF
:10228000655F656E7465720A0078797A63616C5F68
:1022900073706972616C382063783D2564206379BE
:1022A0003D2564207A303D256420647A3D256420F4
:1022B0007261646975733D25642061643D25640A1B
:1022C0000078797A63616C5F7365617263685A2024
:1022D0006E6F207369676E616C0A20783D256C64AF
:1022E00020793D256C64207A3D256C640A00204FDE
:1022F0004E2D5349474E414C20617420783D256452
:1023000020793D2564207A3D25642061643D256463
:102310000A0078797A63616C5F7365617263685AE9
:1023200020783D256C6420793D256C64207A3D251C
:102330006C640A000A00253032780078797A63618B
:102340006C5F7363616E5F706978656C735F333265
:102350007833322063783D25642063793D256420FD
:102360006D696E5F7A3D2564206D61785F7A3D25E9
:10237000640A00202532642025640A000A00253002
:10238000327800206D696E3D2564206D61783D25B1
:1023900064206469663D25640A006D61785F633D71
:1023A000253264206D61785F6C3D25640A006D61A3
:1023B000785F633D2564206D61785F723D25642000
:1023C0006D61785F6D617463683D25640A002078F3
:1023D0003D256420793D2564207A3D25640A00204E
:1023E0007061747465726E20666F756E64206174BE
:1023F0002025642025640A000000F000F801FC0399
:10240000FE07FE07FE07FE07FC03F801F0000000D0
:1024100073697A656F6628746F74616C293D2564F1
:102420000A0073697A656F6628626C6F636B5F621E
:102430007566666572293D25640A0078797A63615C
:102440006C5F6D656173737572655F6C65617665F0
:102450000A00706F696E743D256420783D25642004
:10246000793D2564207A3D25640A005802580258B7
:102470004D584DB004F055F055B00478797A636149
:102480006C5F66696E645F6265645F696E647563E4
:1024900074696F6E5F73656E736F725F706F696E74
:1024A000745F787920783D256C6420793D256C64D3
:1024B000207A3D256C640A00203C20005741524E92
:1024C000494E473A2046726F6E7420706F696E7481
:1024D000206E6F7420726561636861626C652E2086
:1024E0005920636F6F7264696E6174653A00000011
:1024F0000040410000C04000005C430000C04000BC
:10250000005C430000464300004041000046434950
:102510007465726174696F6E3A200043616C696220
:10252000726174696F6E206661696C656421204315
:102530006865636B20746865206178657320616EDF
:10254000642072756E20616761696E2E004D3630B1
:1025500030005052555341206673656E736F725F41
:102560007265636F766572006673656E736F725F16
:10257000757064617465202D204D3630300A00205E
:10258000573A0020453A00543A005A206C69766563
:102590002061646A757374206F7574206F66207291
:1025A000616E67652E2053657474696E6720746F61
:1025B00020302E20436C69636B20746F20636F6E34
:1025C00074696E75652E005A206C697665206164A9
:1025D0006A757374206F7574206F662072616E6700
:1025E000652E2053657474696E6720746F20300007
:1025F00020423A0020453A00543A00494E543400F3
:102600007265636F7665725F6D616368696E655F41
:1026100073746174655F61667465725F706F77650E
:10262000725F70616E69632C20696E697469616C98
:1026300020007265636F7665725F6D616368696EB5
:10264000655F73746174655F61667465725F706FF6
:102650007765725F70616E69632C20696E69746959
:10266000616C2000473932204500505255534120BB
:1026700075766C6F004734205330004D323620534E
:10268000256C75004D3130362053004D38320047EF
:1026900031204625640047312045322A6465666151
:1026A000756C745F72657472616374696F6E2046D5
:1026B000343830004731205A002046323030300064
:1026C00020590047312058004D383300506F73694E
:1026D00074696F6E20726561642066726F6D20652B
:1026E0006570726F6D3A004D3233202573002E678E
:1026F000636F0046656564726174653A0047312016
:10270000452D64656661756C745F72657472616392
:1027100074696F6E204634383000473120453520CB
:1027200046313230004D3833004D31393020532599
:1027300064004D3130392053256400473238205829
:102740002059004731205A32352046383030004871
:10275000656174696E672064697361626C65642089
:102760006279207361666574792074696D65722E73
:10277000005265636F766572696E67207072696E6C
:10278000742020202000004B494C4C45442E200052
:102790005072696E7465722068616C7465642E2075
:1027A0006B696C6C28292063616C6C656421004B3B
:1027B000494C4C3A2025640A004D32323120496E92
:1027C00076616C6964206578747275646572200046
:1027D0004D32313820496E76616C696420657874B9
:1027E000727564657220004D31303920496E766112
:1027F0006C696420657874727564657220004D316F
:10280000303520496E76616C696420657874727524
:1028100064657220004D31303420496E76616C69F8
:1028200064206578747275646572200055564C4F4B
:10283000202D20656E642025640A00737470732552
:10284000640A00776F726C6420636F6F7264696EE4
:10285000617465733A2028252E33662C20252E338B
:10286000662C20252E3366290A0070687973696307
:10287000616C20636F6F7264696E617465733A2076
:1028800028252E33662C20252E33662C20252E332A
:1028900066290A0043757272656E7420706F73202A
:1028A0005A5F415849533A252E33660A437572726E
:1028B000656E7420706F7320455F415849533A2507
:1028C0002E33660A00416674657220776169746907
:1028D0006E6720666F722074656D703A0A43757278
:1028E00072656E7420706F7320585F415849533A77
:1028F000252E33660A43757272656E7420706F738D
:1029000020595F415849533A252E33660A00256302
:10291000252D2E31365320002563252E3135533A8F
:102920002573253364002020202020202020202013
:1029300020202020202020202020002563252D314C
:10294000332E31335325362E365300457872656D5C
:1029500065207370616E206F6620746865205A2050
:1029600076616C75657321006F6B0A007374617218
:10297000740A004D4D5532206669726D776172653B
:102980002076657273696F6E20696E76616C69641A
:102990002E2052657175697265642076657273695F
:1029A0006F6E3A206275696C64206E756D62657237
:1029B000202564206F72206869676865722E004D5B
:1029C0004D55203D3E20276F6B270A004D4D552069
:1029D0003D3E20276F6B270A002564004D4D552092
:1029E0003D3E20276F6B272C20726573756D652027
:1029F0007072696E740A004D4D552072657472795B
:102A000020617474656D7074206E722E2025640AC6
:102A1000004D4D55203D3E20276F6B270A00410A8F
:102A2000004D4D55203C3D202741270A004D3630B2
:102A300030004D363030204155544F0050525553E0
:102A400041206673656E736F725F7265636F766542
:102A500072002568687500410A004D4D55203C3DC7
:102A6000202741270A0050300A004D25640A004DF6
:102A70004D55203C3D20274D2564270A0057300A3C
:102A8000004D4D55203C3D20275730270A00533339
:102A90000A004D4D55203C3D20275333270A005254
:102AA000300A004D4D55203C3D20275230270A006A
:102AB0004B25640A004D4D55203C3D20274B256495
:102AC000270A004525640A004D4D55203C3D20272E
:102AD000452564270A0055300A004D4D55203C3DE0
:102AE00020275530270A0043300A004D4D55203C21
:102AF0003D20274330270A004C25640A004D4D55E0
:102B0000203C3D20274C2564270A005425640A00F8
:102B10004D4D55203C3D2027542564270A004D4D3E
:102B200055202D20454E41424C454400256868758E
:102B30000050300A004D310A004D4D55203C3D20DB
:102B4000274D31270050300A004D4D5520766572D3
:102B500073696F6E2076616C6964004D4D55203D40
:102B60003E202725646F6B270A0025750053320A23
:102B7000004D4D55203C3D2027533227004D4D55EB
:102B8000203D3E202725646F6B270A002575004DE8
:102B90004D55206E6F7420726573706F6E64696E30
:102BA00067202D2044495341424C45440053310A8B
:102BB000004D4D55203C3D2027533127004D4D55AC
:102BC000203D3E202773746172742700205B6F667E
:102BD000665D00426564206C6576656C696E672091
:102BE0006661696C65642E2053656E736F72206434
:102BF00069646E7420747269676765722E2044651B
:102C000062726973206F6E206E6F7A7A6C653F20F6
:102C100057616974696E6720666F722072657365AB
:102C2000742E00506C656173652075706461746505
:102C3000206669726D7761726520696E20796F75A3
:102C400072204D4D55322E2057616974696E672090
:102C5000666F722072657365742E0024F4D4305050
:102C6000C38E20C2A24017828B7011127A910D81FF
:102C70006CD90AA861E108C7586607615143061E6E
:102C80004B5D05C145A7041A411104093D98037124
:102C90003931034036DB0265339102D4305402806F
:102CA0002E1D02632CEE01752AC501B028A001106B
:102CB0002781018F2564012B244B01E0223401ACD4
:102CC000211F018D200D01801FFC00841EED009747
:102CD0001DDF00B81CD200E61BC600201BBC006430
:102CE0001AB200B219A8000A19A0006A189900D1F6
:102CF00017910040178B00B516840031167E00B383
:102D00001579003A157300C7146F0058146A00EE65
:102D10001366008813630025135E00C7125B006C06
:102D200012570015125400C111510070114F0021AB
:102D3000114B00D61049008D104700461044000288
:102D4000104200C00F4000800F3E00420F3C0006C2
:102D50000F3B00CB0E3800930E37005C0E3500277A
:102D60000E3400F30D3200C10D3100900D300060C3
:102D70000D2E00320D2D00050D2C00D90C2B00AEB0
:102D80000C2900850C29005C0C2700350C27000E4F
:102D90000C2600E80B2400C40B2400A00B23007DAC
:102DA0000B23005A0B2100390B2100180B2000F8CF
:102DB0000A1F00D90A1E00BB0A1E009D0A1D0080C2
:102DC0000A1D00630A1C00470A1B002C0A1B001185
:102DD0000A1A00F7091A00DD091900C4091900AB25
:102DE000091900920917007B091800630917004CA4
:102DF00009160036091600200916000A091500F503
:102E0000081500E0081400CC081400B8081400A449
:102E1000081400900813007D0812006B0813005876
:102E2000081200460812003408110023081100128D
:102E300008110001081100F0071000E0071000D091
:102E4000071000C0071000B0070F00A10710009185
:102E5000070E0083070F0074070F0065070E005769
:102E6000070E0049070E003B070D002E070E00203D
:102E7000070D0013070D0006070D00F9060C00ED05
:102E8000060D00E0060C00D4060C00C8060C00BCC1
:102E9000060C00B0060C00A4060B0099060C008D71
:102EA000060B0082060B0077060B006C060B006118
:102EB000060A0057060B004C060A0042060A0038B4
:102EC000060A002E060A0024060A001A060A001046
:102ED00006090007060A00FD050900F4050900EBD4
:102EE000050900E2050900D9050900D0050900C758
:102EF000050900BE050900B5050800AD050800A5D7
:102F00000509009C050800940508008C050800844C
:102F10000508007C050800740508006C05070065BD
:102F20000508005D050700560508004E0507004727
:102F30000507004005080038050700310507002A8D
:102F4000050700230507001C050600160507000FEE
:102F50000507000805060002050700FB040600F54A
:102F6000040700EE040600E8040600E2040700DBA4
:102F7000040600D5040600CF040600C9040600C3F9
:102F8000040600BD040600B7040600B1040500AC49
:102F9000040600A6040600A00405009B0406009594
:102FA000040500900406008A0405008504050080DD
:102FB0000406007A04050075040500700405006B22
:102FC00004050066040500610405005C0405005763
:102FD000040500520405004D0405004804050043A3
:102FE0000405003E0404003A0405003504050030E1
:102FF0000404002C04050027040400230405001E1B
:103000000404001A04040016040500110404000D51
:10301000040400090405000404040000040400FC86
:10302000030400F8030400F4030400F0030400ECBC
:10303000030400E8030400E4030400E0030400DCEC
:10304000030400D8030400D4030400D0030400CC1C
:10305000030400C8030300C503030024F404D920BB
:103060001BC40C5C0E9804C4095F0265077101F46F
:1030700005F900FB04B30048048700C10369005848
:1030800003550003034500BE023A00840231005399
:10309000022A002902250004022000E4011C00C8C5
:1030A000011900AF01170098011400840113007189
:1030B0000110006101100051010E0043010D0036A6
:1030C000010B002B010B0020010B00150109000C66
:1030D00001090003010800FB000800F3000800EBF1
:1030E000000700E4000600DE000600D8000600D25B
:1030F000000600CC000500C7000500C2000500BDA9
:10310000000400B9000400B5000400B1000400ADE3
:10311000000400A9000400A5000300A20003009F12
:103120000004009B00030098000300950002009338
:10313000000300900003008D0002008B0003008854
:103140000002008600020084000300810002007F6C
:103150000002007D0002007B00020079000200777F
:10316000000100760002007400020072000100718C
:103170000002006F0002006D0001006C0002006A96
:10318000000100690002006700010066000100659F
:1031900000010064000200620001006100010060A3
:1031A0000001005F0002005D0001005C0001005BA7
:1031B0000001005A000100590001005800010057A9
:1031C00000010056000100550001005400010053A9
:1031D00000000053000100520001005100010050A6
:1031E0000001004F0001004E0000004E0001004DA4
:1031F0000001004C0001004B0000004B0001004AA0
:10320000000100490001004800000048000100479B
:103210000001004600000046000100450000004596
:10322000000100440001004300000043000100428F
:103230000000004200010041000000410001004088
:103240000001003F0000003F0001003E0000003E82
:103250000001003D0000003D0001003C0000003C7A
:103260000000003C0001003B0000003B0001003A70
:103270000000003A00010039000000390001003868
:10328000000000380000003800010037000000375F
:103290000001003600000036000000360001003555
:1032A000000000350000003500010034000000344B
:1032B0000000003400010033000000330000003340
:1032C0000001003200000032000000320001003135
:1032D000000000310000003100010030000000302B
:1032E000000000300001002F0000002F0000002F20
:1032F0000000002F0001002E0000002E0000002E14
:103300000001002D0000002D0000002D0000002D08
:103310000001002C0000002C0000002C0000002CFC
:103320000001002B0000002B0000002B0000002BF0
:103330000001002A0000002A0000002A0000002AE4
:1033400000010029000000290000002900000029D8
:1033500000000029000100280000002800000028CB
:1033600000000028000000280001002700000027BE
:1033700000000027000000270000002700010026B1
:1033800000000026000000260000002600000026A5
:103390000001002500000025000000250000002598
:1033A000000000250000002500010024000000248A
:1033B000000000240000002400000024000100237D
:1033C0000000002300000023000000230000002371
:1033D0000000002300000023000100220000002262
:1033E0000000002200000022000000220000002255
:1033F0000001002100000021000000210000002148
:103400000000002100000021000000210001002038
:10341000000000200000002000000020000000202C
:103420000000002000000020000000200001001F1C
:103430000000001F0000001F0000001F0000001F10
:103440000000001F0000001F0001001E0000001E01
:103450000000001E0000001E00000070012C019002
:10346000012701B0012201C0011D01F00118011066
:1034700002130130020E016002090190020401C032
:1034800002FF000003FA004003F5008003F000D0C3
:1034900003EB002004E6007004E100E004DC0040DF
:1034A00005D700C005D2004006CD00D006C8008078
:1034B00007C3003008BE00F008B900C009B400B06E
:1034C0000AAF00B00BAA00D00CA500000EA000505F
:1034D0000F9B00C01096005012910000148C00C089
:1034E000158700B0178200B0197D00D01B7800004E
:1034F0001E730040206E0090226900F0246400409A
:10350000275F0090295A00E02B5500102E50002014
:10351000304B0010324600E033410090353C001043
:1035200037370070383200A0392D00B03A2800A09B
:103530003B2300603C1E00103D1900903D1400101C
:103540003E0F00703E0A00C03E0500003F000090A4
:10355000137D00B0157800F0177300601A6E00F04C
:103560001C6900A01F640050225F0020255A00E063
:10357000275500902A5000202D4B00A02F4600F028
:1035800031410010343C00F0353700A037320020C4
:10359000392D00603A2800703B2300603C1E00205B
:1035A0003D1900C03D1400403E0F00A03E0A00F04F
:1035B0003E0500403F0000703FFBFF903FF6FFB02C
:1035C0003FF1FFC03FECFFD03FE7FFE03FE2FFF0FD
:1035D0003FDDFFF03FD8FF20484F54454E44205474
:1035E0004845524D414C2052554E415741590020BB
:1035F0004845415442454420544845524D414C2091
:1036000052554E4157415900544845524D414C2066
:1036100052554E4157415900424544205448455265
:103620004D414C2052554E41574159002054484578
:10363000524D414C2052554E41574159202820505F
:1036400052454845415420484F54454E4429002096
:10365000544845524D414C2052554E4157415920F6
:103660002820505245484541542048454154424540
:1036700044290050524548454154204552524F522A
:10368000004245442050524548454154204552523D
:103690004F5200506C65617365207265737461727E
:1036A00074004D494E54454D50206669786564005C
:1036B0004572723A204D494E54454D50003A2045CE
:1036C0007874727564657220737769746368656471
:1036D000206F66662E204D494E54454D5020747221
:1036E000696767657265642021004572723A204DF2
:1036F000494E54454D50204245440054656D706517
:1037000072617475726520686561746564206265B4
:1037100064207377697463686564206F66662E2021
:103720004D494E54454D5020747269676765726506
:1037300064202100746D63323133305F686F6D65D2
:103740005F656E74657228617865735F6D61736B18
:103750003D307825303278290A00746D6332313378
:10376000305F686F6D655F6578697420746D633272
:103770003133305F73675F686F6D696E675F617863
:1037800065735F6D61736B3D3078253032780A0068
:10379000544D4320445249564552204F56455254A9
:1037A000454D50004D6F6465206368616E6765200C
:1037B000696E2070726F6772657373202E2E2E00F3
:1037C00043616C696272617465005B252E37735DBD
:1037D0004C6976652061646A2E205A0A76616C75A0
:1037E00065207365742C20636F6E74696E75650A4D
:1037F0006F722073746172742066726F6D207A65C7
:10380000726F3F0A2563436F6E74696E7565256339
:10381000526573657400506C65617365206C6F61EF
:10382000642066696C616D656E742066697273747C
:103830002E0049732066696C616D656E74206C6F33
:10384000616465643F0043616E63656C0046696C4A
:10385000616D656E740053656C6563742066696C98
:10386000616D656E743A0052756E6E696E672057B1
:10387000697A6172642077696C6C2064656C657428
:10388000652063757272656E742063616C69627223
:103890006174696F6E20726573756C747320616EEC
:1038A000642073746172742066726F6D2074686531
:1038B00020626567696E6E696E672E20436F6E7455
:1038C000696E75653F0050726568656174696E6701
:1038D000206E6F7A7A6C652E20506C65617365205E
:1038E000776169742E004C6F6164696E6720666948
:1038F0006C616D656E7400506C6561736520696EF6
:10390000736572742066696C616D656E7420696E92
:10391000746F207468652065787472756465722CA4
:10392000207468656E2070726573732074686520FA
:103930006B6E6F6220746F206C6F61642069742EEF
:1039400000506C6561736520696E736572742066E2
:10395000696C616D656E7420696E746F2074686542
:103960002066697273742074756265206F662074B6
:103970006865204D4D552C207468656E2070726509
:10398000737320746865206B6E6F6220746F206C97
:103990006F61642069742E00546865207072696ECE
:1039A0007465722077696C6C207374617274207016
:1039B00072696E74696E672061207A69672D7A6119
:1039C00067206C696E652E20526F74617465207477
:1039D0006865206B6E6F6220756E74696C20796FFC
:1039E0007520726561636820746865206F70746902
:1039F0006D616C206865696768742E204368656333
:103A00006B207468652070696374757265732069D2
:103A10006E207468652068616E64626F6F6B202829
:103A200043616C6962726174696F6E206368617072
:103A3000746572292E0053656C6563742074656D1E
:103A40007065726174757265207768696368206D4E
:103A500061746368657320796F7572206D61746538
:103A60007269616C2E0043686F6F73652061206618
:103A7000696C616D656E7420666F72207468652074
:103A80004669727374204C617965722043616C6978
:103A900062726174696F6E20616E642073656C651B
:103AA000637420697420696E20746865206F6E2DC0
:103AB00073637265656E206D656E752E004E6F774F
:103AC00020492077696C6C2063616C696272617453
:103AD000652064697374616E6365206265747765DF
:103AE000656E20746970206F6620746865206E6F43
:103AF0007A7A6C6520616E642068656174626564C1
:103B000020737572666163652E00596F752063615D
:103B10006E20616C7761797320726573756D6520B5
:103B20007468652057697A6172642066726F6D20CF
:103B300043616C6962726174696F6E202D3E20571B
:103B4000697A6172642E00506C65617365206368E8
:103B500065636B206F75722068616E64626F6F6B56
:103B600020616E6420666978207468652070726FC9
:103B7000626C656D2E205468656E20726573756D7C
:103B800065207468652057697A61726420627920C3
:103B90007265626F6F74696E6720746865207072F9
:103BA000696E7465722E00416C6C20697320646FBD
:103BB0006E652E204861707079207072696E74692C
:103BC0006E672100496620796F75206861766520EF
:103BD0006164646974696F6E616C20737465656C8F
:103BE000207368656574732C2063616C696272610F
:103BF000746520746865697220707265736574738A
:103C000020696E2053657474696E6773202D204897
:103C100057205365747570202D20537465656C2092
:103C20007368656574732E00506C656173652063FD
:103C30006C65616E206865617462656420616E64A4
:103C4000207468656E2070726573732074686520D7
:103C50006B6E6F622E00446F20796F752077616EF6
:103C60007420746F20726570656174206C61737468
:103C7000207374657020746F20726561646A757357
:103C8000742064697374616E63652062657477651E
:103C9000656E206E6F7A7A6C6520616E642068654F
:103CA00061746265643F0053656C656374206E6F78
:103CB0007A7A6C6520707265686561742074656DD0
:103CC0007065726174757265207768696368206DCC
:103CD00061746368657320796F7572206D617465B6
:103CE0007269616C2E0049732066696C616D656E46
:103CF00074206C6F616465643F0049732066696C71
:103D0000616D656E74206C6F616465643F004E6F19
:103D10007720492077696C6C2070726568656174E2
:103D2000206E6F7A7A6C6520666F7220504C412E3F
:103D300000492077696C6C2072756E207A2063616F
:103D40006C6962726174696F6E206E6F772E004EBF
:103D50006F772072656D6F76652074686520746575
:103D60007374207072696E742066726F6D20737444
:103D700065656C2073686565742E00506C656173B1
:103D8000652072656D6F7665207368697070696E05
:103D9000672068656C706572732066697273742E33
:103DA00000492077696C6C2072756E2078797A20D2
:103DB00063616C6962726174696F6E206E6F772ED9
:103DC0002049742077696C6C2074616B6520617088
:103DD00070726F782E203132206D696E732E00461E
:103DE000697273742C20492077696C6C2072756E2F
:103DF000207468652073656C667465737420746FD5
:103E000020636865636B206D6F737420636F6D6DE5
:103E10006F6E20617373656D626C792070726F6272
:103E20006C656D732E0048692C204920616D2079E6
:103E30006F7572204F726967696E616C2050727580
:103E40007361206933207072696E7465722E205719
:103E50006F756C6420796F75206C696B65206D657A
:103E600020746F20677569646520796F75207468A8
:103E7000726F75676820746865207365747570204B
:103E800070726F636573733F00452D636F72726567
:103E900063743A005A2D636F72726563743A005905
:103EA0002D636F72726563743A00582D636F72727E
:103EB0006563743A0053706F6F6C4A6F696E2020AF
:103EC000205B4E2F415D0053706F6F6C4A6F696EBF
:103ED0002020205B6F66665D0053706F6F6C4A6FC9
:103EE000696E202020205B6F6E5D004669726D77E1
:103EF0006172652020205B6E6F6E655D00466972A1
:103F00006D77617265205B7374726963745D0046DE
:103F100069726D776172652020205B7761726E5DDA
:103F2000004669726D776172652020205B6E6F6E4E
:103F3000655D004D6F64656C2020202020205B6E45
:103F40006F6E655D004D6F64656C202020205B7393
:103F500074726963745D004D6F64656C202020206D
:103F600020205B7761726E5D004D6F64656C202070
:103F7000202020205B6E6F6E655D004E6F7A7A6C3C
:103F80006520202020205B6E6F6E655D004E6F7A8D
:103F90007A6C652020205B7374726963745D004ED7
:103FA0006F7A7A6C6520202020205B7761726E5DCD
:103FB000004E6F7A7A6C6520202020205B6E6F6E39
:103FC000655D00485720536574757000485720534D
:103FD0006574757000436865636B73004E6F7A7A21
:103FE0006C6520642E20205B302E34305D004E6FD7
:103FF0007A7A6C6520642E20205B302E36305D008E
:104000004E6F7A7A6C6520642E20205B302E34301F
:104010005D004E6F7A7A6C6520642E20205B302E16
:1040200032355D00537465656C2073686565747323
:1040300000536F756E642020202020205B6C6F750C
:10404000645D00536F756E64202020205B61737384
:104050006973745D00536F756E64202020205B735C
:10406000696C656E745D00536F756E64202020204E
:1040700020205B6F6E63655D00536F756E6420205A
:10408000202020205B6C6F75645D00536F7274207C
:104090002020202020205B6E6F6E655D00536F72C4
:1040A000742020205B616C7068616265745D0053F0
:1040B0006F7274202020202020205B74696D655D64
:1040C000005344206361726420205B6E6F726D61E7
:1040D0006C5D0053442063617264205B666C73689E
:1040E0004169725D0052506920706F727420202007
:1040F00020205B6F6E5D0052506920706F727420DB
:104100002020205B6F66665D0054656D702E206315
:10411000616C2E2020205B6F6E5D0054656D702EEB
:104120002063616C2E20205B6F66665D004C696EBB
:104130002E20636F7272656374696F6E004D6573D4
:104140006820626564206C6576656C696E67004DF9
:104150004D55204D6F64655B537465616C74685D8B
:10416000004D4D55204D6F6465205B4E6F726D6143
:104170006C5D0048572053657475700046616E731E
:1041800020636865636B20205B6F66665D00466137
:104190006E7320636865636B2020205B6F6E5D002B
:1041A000462E206175746F6C6F6164205B6F66666C
:1041B0005D00462E206175746F6C6F616420205B1A
:1041C0006F6E5D00462E206175746F6C6F616420A8
:1041D0005B4E2F415D0044697361626C65207374AE
:1041E000657070657273004D6F76652061786973D4
:1041F0000054656D70657261747572650047383082
:10420000004D3435004D3435205A004737360057BD
:10421000697A6172642073746174653A2025640A56
:104220000044697361626C65206661726D206D6F18
:104230006465004661726D206E756D626572004D39
:1042400038340057697A61726420656E6420737433
:104250006174653A2025640A0020003E003E00207B
:10426000003E003E0054656D706572617475726544
:104270002063616C6962726174696F6E2066616946
:104280006C65642E20436F6E74696E756520776966
:104290007468207072657373696E67207468652036
:1042A0006B6E6F622E0054656D706572617475720D
:1042B000652063616C6962726174696F6E20646FFE
:1042C0006E652E20436F6E74696E75652077697414
:1042D00068207072657373696E6720746865206BFF
:1042E0006E6F622E0054656D7065726174757265D3
:1042F0002063616C6962726174696F6E20666169C6
:104300006C65640054656D706572617475726520CA
:1043100063616C6962726174696F6E206973206693
:10432000696E697368656420616E64206163746995
:1043300076652E2054656D702E2063616C69627203
:104340006174696F6E2063616E20626520646973B9
:1043500061626C656420696E206D656E75205365C1
:104360007474696E67732D3E54656D702E206361A1
:104370006C2E004E2F4100202030002020310049BB
:10438000523A0046494E44413A0050494E44413A5F
:104390000053656E736F72207374617465004578A5
:1043A000747275646572004D6F7665205A004D6FAA
:1043B00076652059004D6F76652058004372617311
:1043C0006820646574656374696F6E2063616E0A4A
:1043D0006265207475726E6564206F6E206F6E6CFE
:1043E0007920696E0A4E6F726D616C206D6F646525
:1043F000005741524E494E473A0A43726173682052
:10440000646574656374696F6E0A64697361626C74
:10441000656420696E0A537465616C7468206D6F01
:104420006465004175746F6C6F6164696E672066C6
:10443000696C616D656E7420617661696C61626C36
:1044400065206F6E6C79207768656E2066696C6197
:104450006D656E742073656E736F7220697320745E
:1044600075726E6564206F6E2E2E2E004552524F6F
:10447000523A2046696C616D656E742073656E7387
:104480006F72206973206E6F7420726573706F6E27
:1044900064696E672C20706C656173652063686564
:1044A000636B20636F6E6E656374696F6E2E004779
:1044B00031205A252D302E33662046252D302E33BF
:1044C000660047312045252D302E33662046323791
:1044D0003030004D3833000000211042206330841A
:1044E00040A550C660E770088129914AA16BB18C44
:1044F000C1ADD1CEE1EFF13112100273325222B5CB
:10450000529442F772D662399318837BB35AA3BD93
:10451000D39CC3FFF3DEE36224433420040114E69A
:1045200064C774A44485546AA54BB528850995EEE3
:10453000E5CFF5ACC58DD55336722611163006D7AA
:1045400076F6669556B4465BB77AA719973887DF33
:10455000F7FEE79DD7BCC7C448E5588668A77840F2
:1045600008611802282338CCC9EDD98EE9AFF94883
:104570008969990AA92BB9F55AD44AB77A966A710A
:104580001A500A333A122AFDDBDCCBBFFB9EEB79D3
:104590009B588B3BBB1AABA66C877CE44CC55C225A
:1045A0002C033C600C411CAEED8FFDECCDCDDD2A23
:1045B000AD0BBD688D499D977EB66ED55EF44E13EA
:1045C0003E322E511E700E9FFFBEEFDDDFFCCF1B73
:1045D000BF3AAF599F788F8891A981CAB1EBA10CDE
:1045E000D12DC14EF16FE18010A100C230E3200453
:1045F00050254046706760B9839893FBA3DAB33DBA
:10460000C31CD37FE35EF3B1029012F322D23235A2
:1046100042145277625672EAB5CBA5A89589856E89
:10462000F54FE52CD50DC5E234C324A014810466F2
:1046300074476424540544DBA7FAB79987B8975F99
:10464000E77EF71DC73CD7D326F2369106B0165742
:10465000667676154634564CD96DC90EF92FE9C8E1
:1046600099E9898AB9ABA94458654806782768C092
:1046700018E1088238A3287DCB5CDB3FEB1EFBF9F9
:104680008BD89BBBAB9ABB754A545A376A167AF1E2
:104690000AD01AB32A923A2EFD0FED6CDD4DCDAA49
:1046A000BD8BADE89DC98D267C076C645C454CA232
:1046B0003C832CE01CC10C1FEF3EFF5DCF7CDF9BD9
:1046C000AFBABFD98FF89F176E367E554E745E9382
:1046D0002EB23ED10EF01E7C3C3E3F2F2A225C00C3
:1046E000773235783230636C5F63666D0A007732FB
:1046F00035783230636C5F656E7465720A002074C1
:104700006F6F206C6F6E6720657874727573696F58
:104710006E2070726576656E7465640020636F6CE0
:104720006420657874727573696F6E207072657637
:10473000656E74656400726573756C742076616C67
:1047400075653A2025640A0020693D25326420639E
:104750006E743D2532642076616C3D2532640A001A
:10476000636C7573746572733A0A0020693D253273
:104770006420737465703D2532640A00736F72742F
:1047800065642073616D706C65733A0A005553411E
:104790005254322072782046756C6C2121210A0017
:1047A0003A2000202020202020202020202020200F
:1047B00020202020202000203A200020202020201F
:1047C0002020202020202020202020202020200009
:1047D00020202020202020202020202020002573A1
:1047E0000025632533642F25642563005A25362E62
:1047F000326620005A2020202D2D2D2000256325F3
:1048000033642525002D2D2D00253368686400258F
:1048100033532533732525002053440020202000E6
:10482000555342002025753E257500203F3E2575D5
:1048300000204625750020463F00204630202000FD
:1048400025632D2D3A2D2D202000256325337568F5
:104850002025632563002563253032753A253032E3
:1048600075256325630050494E44412048656174B5
:10487000696E670054656D702E2063616C2E202078
:1048800020202020202020200043616C696272617A
:1048900074696F6E20646F6E650043616C6962724B
:1048A0006174696E67205A0042656420646F6E65AA
:1048B000004265642048656174696E6700486561FF
:1048C00074696E6720646F6E652E00486561746957
:1048D0006E670046696E697368696E67206D6F76F2
:1048E000656D656E747300536F756E6420202020B3
:1048F00020205B6C6F75645D00536F756E642020C3
:1049000020205B6173736973745D00536F756E640F
:10491000202020205B73696C656E745D00536F7599
:104920006E642020202020205B6F6E63655D005345
:104930006F756E642020202020205B6C6F75645D95
:10494000004D4D55204D6F64655B537465616C740B
:10495000685D004D4D55204D6F6465205B4E6F7254
:104960006D616C5D004372617368206465742E2014
:10497000205B4E2F415D0043726173682064657453
:104980002E20205B6F66665D004372617368206451
:1049900065742E2020205B6F6E5D004D6F64652076
:1049A0002020205B537465616C74685D004D6F64FA
:1049B0006520202020205B4E6F726D616C5D00468B
:1049C000616E7320636865636B20205B6F66665D54
:1049D0000046616E7320636865636B2020205B6F07
:1049E0006E5D0046696C2E2073656E736F722020B9
:1049F0005B6F6E5D0046696C2E2073656E736F721F
:104A0000205B6F66665D004368616E67652066695E
:104A10006C616D656E7400466C6F770053706565F0
:104A200064004D61676E65747320636F6D702E5BFB
:104A30004E2F415D004D61676E65747320636F6D2D
:104A4000702E5B4F66665D004D61676E6574732006
:104A5000636F6D702E205B4F6E5D005A2D70726F0C
:104A60006265206E722E202020205B335D005A2D5F
:104A700070726F6265206E722E202020205B355D83
:104A8000005A2D70726F6265206E722E20202020D9
:104A90005B315D004D6573682020202020202020A0
:104AA000205B3778375D004D65736820202020201B
:104AB000202020205B3378335D0046616E207370C8
:104AC00065656400426564004E6F7A7A6C650053D8
:104AD000657474696E6773005072696E74206162E8
:104AE0006F727465640053746F70207072696E74B5
:104AF0000046696C6520696E636F6D706C657465E6
:104B00002E20436F6E74696E756520616E797761D2
:104B1000793F004261636B004D61696E004D363034
:104B200030004D3234004D323320257300052E2ED7
:104B3000002F2F20616374696F6E3A63616E636545
:104B40006C00436F6F6C646F776E005072656865C0
:104B5000617420746865206E6F7A7A6C65210045F7
:104B600052524F523A0046696C616D656E74206511
:104B70007874727564696E6720262077697468207E
:104B8000636F727265637420636F6C6F723F004174
:104B900075746F6C6F6164696E672066696C616DB6
:104BA000656E74206973206163746976652C206A70
:104BB00075737420707265737320746865206B6EF2
:104BC0006F6220616E6420696E736572742066691D
:104BD0006C616D656E742E2E2E00546F74616C20A6
:104BE0007072696E742074696D6500546F74616CC5
:104BF0002066696C616D656E74005072696E742018
:104C000074696D650046696C616D656E74207573BD
:104C10006564005269676874004C656674005920C9
:104C200064697374616E63652066726F6D206D696F
:104C30006E0053657665726520736B65773A005335
:104C40006C6967687420736B65773A004D656173B2
:104C50007572656420736B6577005B303B305D2057
:104C6000706F696E74206F66667365740041646A64
:104C7000757374696E67205A3A00526573657400E3
:104C8000526561722073696465205B756D5D0046D5
:104C9000726F6E7420736964655B756D5D00526937
:104CA00067687420736964655B756D5D004C65664B
:104CB000742073696465205B756D5D0053657420B5
:104CC00074656D70657261747572653A00464C4525
:104CD00058202D20203234302F35300050502020E5
:104CE000202D20203235342F3130300048495053A8
:104CF000202D20203232302F3130300041425320DD
:104D0000202D20203235352F3130300041534120C5
:104D1000202D20203236302F3130350050455420A0
:104D2000202D20203233302F383500504C412020A8
:104D30002D20203231352F3630006E6F7A7A6C6537
:104D4000202D20203235302F30006661726D2020FA
:104D5000202D20203235302F383000252D31322EB5
:104D6000313253252B382E316600457874727564C4
:104D700065723A006D6D0059005800583A00593A72
:104D8000005A3A002563252D31332E313353252B1C
:104D9000352E33660025533A0A2531372E32666D9B
:104DA00020200A25533A0A25376C6464203A2532BC
:104DB00068686468203A2530326868646D0025535D
:104DC0003A0A2531372E32666D20200A25533A0AD9
:104DD0002532646820253032646D202530326473BA
:104DE0000025362E32666D6D004E2F410025533A58
:104DF0000A25530A25533A0A25533A004E2F4100FB
:104E000025332E3266010025533A0A25530A252DF3
:104E100031352E31355325332E3266010A252D3199
:104E2000352E31355325332E3266010046696C61CB
:104E30006D656E742073656E736F72005072696E6B
:104E4000742066616E3A00457874727564657220EC
:104E500066616E3A0043616C6962726174696E6783
:104E600020686F6D650053656C66746573742066A9
:104E700061696C6564202000416C6C20636F727204
:104E800065637420202020202000436865636B69DF
:104E90006E672073656E736F72732000436865637D
:104EA0006B696E6720686F74656E642020004368CC
:104EB00065636B696E672062656420202020200096
:104EC000436865636B696E67205A20617869732057
:104ED0002000436865636B696E67205920617869BB
:104EE00073202000436865636B696E6720582061FA
:104EF000786973202000436865636B696E6720657D
:104F00006E6473746F7073004572726F72202D201F
:104F1000737461746963206D656D6F727920686167
:104F200073206265656E206F76657277726974743E
:104F3000656E00436172642072656D6F7665640012
:104F40005072696E746572206E6F7A7A6C65206437
:104F500069616D6574657220646966666572732047
:104F600066726F6D2074686520472D636F64652ECF
:104F700020506C6561736520636865636B2074689D
:104F8000652076616C756520696E2073657474693F
:104F90006E67732E205072696E742063616E636554
:104FA0006C6C65642E005072696E746572206E6F51
:104FB0007A7A6C65206469616D65746572206469D4
:104FC00066666572732066726F6D2074686520472F
:104FD0002D636F64652E20436F6E74696E75653F37
:104FE000002D2D2D2D2D2D2D2D2D2D2D2D2D2D2D1E
:104FF0002D2D2D2D2D000000000000110A0450520F
:1050000055534133444657002079303D25640A000A
:105010002078303D25640A004F4B0A004552524F1C
:10502000522061643D25640A002020207A303D250D
:10503000640A00207A303D25640A002079303D253D
:10504000640A002078303D25640A0078797A63612B
:105050006C5F66696E645F706F696E745F63656EC6
:10506000746572320A0057616974696E6720666FF1
:1050700072206E6F7A7A6C6520616E64206265645E
:1050800020636F6F6C696E670053656C6620746592
:105090007374204F4B0053656C66207465737420E5
:1050A000737461727420200046616C7365207472A1
:1050B0006967676572696E670053776170706564D0
:1050C0000046726F6E742F6C6566742066616E7335
:1050D00000417869730041786973206C656E67746C
:1050E00068004C6F6F73652070756C6C6579004556
:1050F0006E6473746F70206E6F74206869740045FD
:105100006E6473746F70004D6F746F7200456E64DF
:1051100073746F707300576972696E67206572727D
:105120006F7200426564202F2048656174657200CB
:105130004E6F7420636F6E6E6563746564004865BE
:10514000617465722F546865726D6973746F720053
:10515000506C6561736520636865636B203A00532A
:10516000656C6674657374206572726F72202100BD
:10517000457874722066616E2073706565643A20AC
:105180002564200A005072696E742066616E207377
:10519000706565643A202564200A005465737420A4
:1051A000313A0A00457874722066616E207370652A
:1051B00065643A202564200A005072696E74206686
:1051C000616E2073706565643A202564200A00547E
:1051D00065737420323A0A006C63645F73656C66B1
:1051E000636865636B5F617869732025642C202593
:1051F000640A004D3834004731205A313520463199
:10520000303030004732382057002563204158495C
:1052100053205347313D25640A0041786973206C5F
:10522000656E67746820646966666572656E63653D
:105230003A252E33660A004D6561737572656420E8
:1052400061786973206C656E6774683A252E3366E1
:105250000A00437573746F6D00546578747572003D
:10526000536D6F6F74680047312059252D2E3266BB
:105270002045252D2E3366004731205825642059BE
:10528000252D2E32662045252D2E3366006673654A
:105290006E736F725F73746F705F616E645F736162
:1052A00076655F7072696E740A00000E1315110E38
:1052B00000000004120912040000001C1F11111F3D
:1052C00000000006191803130C00040E1F041C0034
:1052D0000000040A0A0A0A11110E001F1511151FF9
:1052E0000000000103161C0800000000110A041150
:1052F0000A040C12120C000000002563252D313821
:105300002E313853256300252E313053200025637C
:10531000252D31382E3138732563005344206361C5
:105320007264206F6B006F70656E526F6F742066D1
:1053300061696C656400766F6C756D652E696E6968
:1053400074206661696C656400534420696E6974F9
:10535000206661696C0057726974696E6720746FAA
:105360002066696C653A200046696C652073656C3F
:105370006563746564002053697A653A2000466964
:105380006C65206F70656E65643A20006F70656EA5
:10539000206661696C65642C2046696C653A200062
:1053A0001F1F1F1F1F1F1F1F2E002E004E6F772055
:1053B00066726573682066696C653A20004E6F7787
:1053C00020646F696E672066696C653A2000222050
:1053D000706F73002220706172656E743A22005300
:1053E0005542524F5554494E452043414C4C207430
:1053F00061726765743A2200747279696E6720740D
:105400006F2063616C6C207375622D67636F6465D8
:105410002066696C6573207769746820746F6F20EB
:105420006D616E79206C6576656C732E204D4158E8
:10543000206C6576656C2069733A002E00536F729C
:1054400074696E672066696C657300536F6D6520C3
:1054500066696C65732077696C6C206E6F7420626E
:105460006520736F727465642E204D61782E204E16
:105470006F2E206F662066696C657320696E20311F
:1054800020666F6C64657220666F7220736F727431
:10549000696E67206973203130302E0054656D705D
:1054A0002E2063616C6962726174696F6E0052656F
:1054B0007365742058595A2063616C6962722E00BA
:1054C0005049442063616C6962726174696F6E0057
:1054D000426564206C6576656C20636F72726563EB
:1054E00074004D65736820426564204C6576656C78
:1054F000696E670043616C696272617465205A006D
:1055000043616C6962726174652058595A00536531
:105510006C667465737420202020202020202000D9
:1055200057697A617264004C6F616420616C6C0031
:10553000456A6563742066696C616D656E740050C0
:105540006C656173652070756C6C206F7574206676
:10555000696C616D656E7420696D6D6564696174F7
:10556000656C7900556E6C6F6164696E6720666961
:105570006C616D656E7400526573756D696E672040
:105580007072696E740052657365740052656E6165
:105590006D65004669727374206C61796572206371
:1055A000616C2E0053656C65637400537465656CA3
:1055B000207368656574730053686565740053757E
:1055C00070706F7274004661696C207374617473DB
:1055D000204D4D55004661696C20737461747300F1
:1055E0005374617469737469637320200043616C40
:1055F0006962726174696F6E004175746F4C6F619E
:10560000642066696C616D656E7400456A656374DB
:105610002066696C616D656E7400556E6C6F6164B7
:105620002066696C616D656E74004C6F61642074F6
:105630006F206E6F7A7A6C65004C6F6164206669CA
:105640006C616D656E74004E6F205344206361720F
:1056500064005072696E742066726F6D205344004E
:10566000526573756D65207072696E740050617556
:105670007365207072696E7400526573756D652074
:105680007072696E7400507265686561740054755B
:105690006E65004C6976652061646A757374205A82
:1056A00000496E666F2073637265656E004D343419
:1056B0000047323820570047393900446973616226
:1056C0006C65206661726D206D6F64653F00252DED
:1056D000392E39535B002563252D31382E3138732F
:1056E0002563004661726D206E756D6265720045BE
:1056F00072723A205052494E542046414E20455233
:10570000524F52004572723A20455854522E20464C
:10571000414E204552524F52002F2F206163746931
:105720006F6E3A726573756D6564000000A040008D
:1057300000A0400000004025336420737465703D74
:10574000253264206D73636E743D2534640A000055
:10575000007F43008058439AD95143FFFFFF67639E
:105760006F64655F4D37303120626567696E0A008E
:1057700022206661696C65643A20427566666572CE
:105780002066756C6C21002200256920686F757297
:1057900073202569206D696E757465730054494DD9
:1057A000454F55543A004D3131300046756C6C20F0
:1057B00052582042756666657200656E717565693E
:1057C0006E67202200446F6E65207072696E746986
:1057D0006E672066696C65005072696E7465722030
:1057E00073746F707065642064756520746F2065D4
:1057F00072726F72732E2046697820746865206516
:1058000072726F7220616E6420757365204D393934
:105810003920746F20726573746172742E2028545D
:10582000656D70657261747572652069732072654B
:105830007365742E205365742069742061667465E5
:10584000722072657374617274696E6729004E6F9D
:10585000204C696E65204E756D62657220776974A3
:105860006820636865636B73756D2C204C6173747D
:10587000204C696E653A20004E6F20436865636B6B
:1058800073756D2077697468206C696E65206E751C
:105890006D6265722C204C617374204C696E653AA0
:1058A0002000636865636B73756D206D69736D614E
:1058B0007463682C204C617374204C696E653A20C7
:1058C000004C696E65204E756D62657220697320AB
:1058D0006E6F74204C617374204C696E65204E7538
:1058E0006D6265722B312C204C617374204C696E93
:1058F000653A200053544F505045442E200010006C
:10590000C90210012C014001220170011801B001EF
:105910000E01F00104015002FA00B002F000300361
:10592000E600D003DC009004D2007005C800A00699
:10593000BE000008B400B009AA00D00BA000600EA1
:10594000960060118C000015820020197800C01D9F
:105950006E00A0226400B0275A00902C5000003145
:105960004600E0343C0010383200903A2800603C99
:105970001E00A03D1400803E0A00203F0000457834
:105980007472756465722066616E207370656564FB
:10599000206973206C6F776572207468616E206572
:1059A00078706563746564005072696E7420666116
:1059B0006E207370656564206973206C6F77657203
:1059C000207468616E206578706563746564004555
:1059D00072723A204D415854454D50003A20457856
:1059E0007472756465722073776974636865642086
:1059F0006F66662E204D415854454D502074726993
:105A00006767657265642021004572723A204D41D6
:105A10005854454D50204245440054656D706572A0
:105A2000617475726520686561746564206265647F
:105A3000207377697463686564206F66662E204DF5
:105A4000415854454D5020747269676765726564AA
:105A500020210000202D20496E76616C696420654C
:105A600078747275646572206E756D62657220213E
:105A7000004D3234004D3233202573006175746F50
:105A800025692E670022206661696C65643A2042B0
:105A900075666665722066756C6C2100456E717561
:105AA00065696E6720746F207468652066726F6E1A
:105AB000743A2022004572726F723A002200456EDD
:105AC000717565696E6720746F20746865206672F1
:105AD0006F6E743A2022006563686F3A0045455046
